{"abi":[{"type":"function","name":"DISPUTE_WINDOW","inputs":[],"outputs":[{"name":"","type":"uint256","internalType":"uint256"}],"stateMutability":"view"},{"type":"function","name":"MAX_DEADLINE","inputs":[],"outputs":[{"name":"","type":"uint256","internalType":"uint256"}],"stateMutability":"view"},{"type":"function","name":"MIN_DEADLINE","inputs":[],"outputs":[{"name":"","type":"uint256","internalType":"uint256"}],"stateMutability":"view"},{"type":"function","name":"approveBounty","inputs":[{"name":"id","type":"uint256","internalType":"uint256"}],"outputs":[],"stateMutability":"nonpayable"},{"type":"function","name":"bounties","inputs":[{"name":"","type":"uint256","internalType":"uint256"}],"outputs":[{"name":"id","type":"uint256","internalType":"uint256"},{"name":"poster","type":"address","internalType":"address"},{"name":"amount","type":"uint256","internalType":"uint256"},{"name":"title","type":"string","internalType":"string"},{"name":"description","type":"string","internalType":"string"},{"name":"requirements","type":"string","internalType":"string"},{"name":"claimer","type":"address","internalType":"address"},{"name":"status","type":"uint8","internalType":"enum BountyEscrow.Status"},{"name":"deadline","type":"uint256","internalType":"uint256"},{"name":"proof","type":"string","internalType":"string"},{"name":"createdAt","type":"uint256","internalType":"uint256"},{"name":"completedAt","type":"uint256","internalType":"uint256"}],"stateMutability":"view"},{"type":"function","name":"bountyCount","inputs":[],"outputs":[{"name":"","type":"uint256","internalType":"uint256"}],"stateMutability":"view"},{"type":"function","name":"cancelBounty","inputs":[{"name":"id","type":"uint256","internalType":"uint256"}],"outputs":[],"stateMutability":"nonpayable"},{"type":"function","name":"claimBounty","inputs":[{"name":"id","type":"uint256","internalType":"uint256"}],"outputs":[],"stateMutability":"nonpayable"},{"type":"function","name":"claimerBounties","inputs":[{"name":"","type":"address","internalType":"address"},{"name":"","type":"uint256","internalType":"uint256"}],"outputs":[{"name":"","type":"uint256","internalType":"uint256"}],"stateMutability":"view"},{"type":"function","name":"disputeBounty","inputs":[{"name":"id","type":"uint256","internalType":"uint256"}],"outputs":[],"stateMutability":"nonpayable"},{"type":"function","name":"getBounty","inputs":[{"name":"id","type":"uint256","internalType":"uint256"}],"outputs":[{"name":"","type":"tuple","internalType":"struct BountyEscrow.Bounty","components":[{"name":"id","type":"uint256","internalType":"uint256"},{"name":"poster","type":"address","internalType":"address"},{"name":"amount","type":"uint256","internalType":"uint256"},{"name":"title","type":"string","internalType":"string"},{"name":"description","type":"string","internalType":"string"},{"name":"requirements","type":"string","internalType":"string"},{"name":"claimer","type":"address","internalType":"address"},{"name":"status","type":"uint8","internalType":"enum BountyEscrow.Status"},{"name":"deadline","type":"uint256","internalType":"uint256"},{"name":"proof","type":"string","internalType":"string"},{"name":"createdAt","type":"uint256","internalType":"uint256"},{"name":"completedAt","type":"uint256","internalType":"uint256"}]}],"stateMutability":"view"},{"type":"function","name":"getClaimerBounties","inputs":[{"name":"claimer","type":"address","internalType":"address"}],"outputs":[{"name":"","type":"uint256[]","internalType":"uint256[]"}],"stateMutability":"view"},{"type":"function","name":"getOpenBounties","inputs":[{"name":"offset","type":"uint256","internalType":"uint256"},{"name":"limit","type":"uint256","internalType":"uint256"}],"outputs":[{"name":"results","type":"tuple[]","internalType":"struct BountyEscrow.Bounty[]","components":[{"name":"id","type":"uint256","internalType":"uint256"},{"name":"poster","type":"address","internalType":"address"},{"name":"amount","type":"uint256","internalType":"uint256"},{"name":"title","type":"string","internalType":"string"},{"name":"description","type":"string","internalType":"string"},{"name":"requirements","type":"string","internalType":"string"},{"name":"claimer","type":"address","internalType":"address"},{"name":"status","type":"uint8","internalType":"enum BountyEscrow.Status"},{"name":"deadline","type":"uint256","internalType":"uint256"},{"name":"proof","type":"string","internalType":"string"},{"name":"createdAt","type":"uint256","internalType":"uint256"},{"name":"completedAt","type":"uint256","internalType":"uint256"}]},{"name":"total","type":"uint256","internalType":"uint256"}],"stateMutability":"view"},{"type":"function","name":"getPosterBounties","inputs":[{"name":"poster","type":"address","internalType":"address"}],"outputs":[{"name":"","type":"uint256[]","internalType":"uint256[]"}],"stateMutability":"view"},{"type":"function","name":"postBounty","inputs":[{"name":"title","type":"string","internalType":"string"},{"name":"description","type":"string","internalType":"string"},{"name":"requirements","type":"string","internalType":"string"},{"name":"deadlineDuration","type":"uint256","internalType":"uint256"}],"outputs":[{"name":"id","type":"uint256","internalType":"uint256"}],"stateMutability":"payable"},{"type":"function","name":"posterBounties","inputs":[{"name":"","type":"address","internalType":"address"},{"name":"","type":"uint256","internalType":"uint256"}],"outputs":[{"name":"","type":"uint256","internalType":"uint256"}],"stateMutability":"view"},{"type":"function","name":"refundExpiredBounty","inputs":[{"name":"id","type":"uint256","internalType":"uint256"}],"outputs":[],"stateMutability":"nonpayable"},{"type":"function","name":"submitProof","inputs":[{"name":"id","type":"uint256","internalType":"uint256"},{"name":"proof","type":"string","internalType":"string"}],"outputs":[],"stateMutability":"nonpayable"},{"type":"event","name":"BountyCancelled","inputs":[{"name":"id","type":"uint256","indexed":true,"internalType":"uint256"},{"name":"poster","type":"address","indexed":true,"internalType":"address"},{"name":"refund","type":"uint256","indexed":false,"internalType":"uint256"}],"anonymous":false},{"type":"event","name":"BountyClaimed","inputs":[{"name":"id","type":"uint256","indexed":true,"internalType":"uint256"},{"name":"claimer","type":"address","indexed":true,"internalType":"address"}],"anonymous":false},{"type":"event","name":"BountyCompleted","inputs":[{"name":"id","type":"uint256","indexed":true,"internalType":"uint256"},{"name":"claimer","type":"address","indexed":true,"internalType":"address"},{"name":"amount","type":"uint256","indexed":false,"internalType":"uint256"}],"anonymous":false},{"type":"event","name":"BountyDisputed","inputs":[{"name":"id","type":"uint256","indexed":true,"internalType":"uint256"},{"name":"poster","type":"address","indexed":true,"internalType":"address"}],"anonymous":false},{"type":"event","name":"BountyPosted","inputs":[{"name":"id","type":"uint256","indexed":true,"internalType":"uint256"},{"name":"poster","type":"address","indexed":true,"internalType":"address"},{"name":"amount","type":"uint256","indexed":false,"internalType":"uint256"},{"name":"title","type":"string","indexed":false,"internalType":"string"},{"name":"deadline","type":"uint256","indexed":false,"internalType":"uint256"}],"anonymous":false},{"type":"event","name":"DeadlineExpiredRefund","inputs":[{"name":"id","type":"uint256","indexed":true,"internalType":"uint256"},{"name":"poster","type":"address","indexed":true,"internalType":"address"},{"name":"refund","type":"uint256","indexed":false,"internalType":"uint256"}],"anonymous":false},{"type":"event","name":"ProofSubmitted","inputs":[{"name":"id","type":"uint256","indexed":true,"internalType":"uint256"},{"name":"claimer","type":"address","indexed":true,"internalType":"address"},{"name":"proof","type":"string","indexed":false,"internalType":"string"}],"anonymous":false},{"type":"error","name":"AlreadyClaimed","inputs":[]},{"type":"error","name":"BountyNotClaimed","inputs":[]},{"type":"error","name":"BountyNotOpen","inputs":[]},{"type":"error","name":"BountyNotSubmitted","inputs":[]},{"type":"error","name":"DeadlineNotPassed","inputs":[]},{"type":"error","name":"DeadlinePassed","inputs":[]},{"type":"error","name":"InvalidAmount","inputs":[]},{"type":"error","name":"InvalidDeadline","inputs":[]},{"type":"error","name":"NotClaimer","inputs":[]},{"type":"error","name":"NotPoster","inputs":[]}],"bytecode":{"object":"0x608060405234801561000f575f80fd5b50611f7a8061001d5f395ff3fe608060405260043610610105575f3560e01c806385ae341d11610092578063dc2f874411610062578063dc2f8744146102a2578063e5e5dff1146102d9578063ee8c4bbf146102f8578063f23371af14610324578063f585dc5714610343575f80fd5b806385ae341d146102305780638802ca2014610245578063a153e86b14610264578063a1e1623414610283575f80fd5b80635fe3e25e116100d85780635fe3e25e1461018f5780636f0e530f146101bb57806381b2948f146101d1578063848c32a0146101f057806384b448f61461021d575f80fd5b80630f2aff03146101095780632af005101461012a5780633e362c961461014957806344021ad714610170575b5f80fd5b348015610114575f80fd5b506101286101233660046117dc565b610359565b005b348015610135575f80fd5b50610128610144366004611838565b610475565b348015610154575f80fd5b5061015d5f5481565b6040519081526020015b60405180910390f35b34801561017b575f80fd5b5061012861018a3660046117dc565b61055a565b34801561019a575f80fd5b506101ae6101a936600461189b565b61066a565b60405161016791906118bb565b3480156101c6575f80fd5b5061015d62278d0081565b3480156101dc575f80fd5b506101286101eb3660046117dc565b6106d3565b3480156101fb575f80fd5b5061020f61020a3660046118fe565b6107f2565b604051610167929190611a84565b61015d61022b366004611aee565b610c75565b34801561023b575f80fd5b5061015d610e1081565b348015610250575f80fd5b5061015d61025f366004611b89565b610f64565b34801561026f575f80fd5b5061012861027e3660046117dc565b610f8f565b34801561028e575f80fd5b506101ae61029d36600461189b565b61104e565b3480156102ad575f80fd5b506102c16102bc3660046117dc565b6110b5565b6040516101679c9b9a99989796959493929190611bb1565b3480156102e4575f80fd5b506101286102f33660046117dc565b611342565b348015610303575f80fd5b506103176103123660046117dc565b61144b565b6040516101679190611c5a565b34801561032f575f80fd5b5061015d61033e366004611b89565b611747565b34801561034e575f80fd5b5061015d6201518081565b5f818152600160208190526040909120906006820154600160a01b900460ff16600581111561038a5761038a611961565b146103a8576040516356f4153160e11b815260040160405180910390fd5b80600701544210156103cd576040516302eb354360e41b815260040160405180910390fd5b60068101805460ff60a01b1916600160a21b1790556002810180545f91829055600183015460405191926001600160a01b039091169183156108fc0291849190818181858888f19350505050158015610428573d5f803e3d5ffd5b5060018201546040518281526001600160a01b039091169084907f411acabe9bdcb85585de645552090e349052c7ab16eb1c5d41daaac17f5bfb67906020015b60405180910390a3505050565b5f838152600160208190526040909120906006820154600160a01b900460ff1660058111156104a6576104a6611961565b146104c4576040516356f4153160e11b815260040160405180910390fd5b60068101546001600160a01b031633146104f1576040516312aa60cd60e31b815260040160405180910390fd5b60088101610500838583611d04565b5060068101805460ff60a01b1916600160a11b179055604051339085907fb2217a1ebc8d6435d328a4607aa9709269fe4cb393535a1675721d8431a540189061054c9087908790611de6565b60405180910390a350505050565b5f818152600160205260408120906006820154600160a01b900460ff16600581111561058857610588611961565b146105a657604051631213349960e21b815260040160405180910390fd5b806007015442106105ca5760405163387b2e5560e11b815260040160405180910390fd5b60068101546001600160a01b0316156105f657604051630c8d9eab60e31b815260040160405180910390fd5b6006810180546001600160a81b0319163360ff60a01b19811691909117600160a01b179091555f81815260036020908152604080832080546001810182559084529183209091018590555184917fbf59c0d059a57ebf273b4b1643599fc4b48cf5effdd82113a740ed64d262ec9391a35050565b6001600160a01b0381165f908152600360209081526040918290208054835181840281018401909452808452606093928301828280156106c757602002820191905f5260205f20905b8154815260200190600101908083116106b3575b50505050509050919050565b5f81815260016020526040902060026006820154600160a01b900460ff16600581111561070257610702611961565b1461072057604051630cd20a5160e41b815260040160405180910390fd5b60018101546001600160a01b0316331461074d57604051630edd024760e11b815260040160405180910390fd5b600681018054600360a01b60ff60a01b1982161790915542600a83015560028201546040516001600160a01b03909216916108fc82150291905f818181858888f193505050501580156107a2573d5f803e3d5ffd5b50600681015460028201546040519081526001600160a01b039091169083907f285d0f935b4d6592b80efc46cc3d9eb3e93e27fe245f0a6c2b5b9a9d04800ee79060200160405180910390a35050565b60605f80805b5f54811015610865575f8082815260016020526040902060060154600160a01b900460ff16600581111561082e5761082e611961565b14801561084a57505f8181526001602052604090206007015442105b1561085d578161085981611e15565b9250505b6001016107f8565b508091508367ffffffffffffffff81111561088257610882611c6c565b6040519080825280602002602001820160405280156108bb57816020015b6108a8611760565b8152602001906001900390816108a05790505b5092505f805f5b5f54811080156108d157508683105b15610c67575f8082815260016020526040902060060154600160a01b900460ff16600581111561090357610903611961565b14801561091f57505f8181526001602052604090206007015442105b15610c55578782101561093e578161093681611e15565b925050610c55565b5f8181526001602081815260409283902083516101808101855281548152928101546001600160a01b03169183019190915260028101549282019290925260038201805491929160608401919061099490611c80565b80601f01602080910402602001604051908101604052809291908181526020018280546109c090611c80565b8015610a0b5780601f106109e257610100808354040283529160200191610a0b565b820191905f5260205f20905b8154815290600101906020018083116109ee57829003601f168201915b50505050508152602001600482018054610a2490611c80565b80601f0160208091040260200160405190810160405280929190818152602001828054610a5090611c80565b8015610a9b5780601f10610a7257610100808354040283529160200191610a9b565b820191905f5260205f20905b815481529060010190602001808311610a7e57829003601f168201915b50505050508152602001600582018054610ab490611c80565b80601f0160208091040260200160405190810160405280929190818152602001828054610ae090611c80565b8015610b2b5780601f10610b0257610100808354040283529160200191610b2b565b820191905f5260205f20905b815481529060010190602001808311610b0e57829003601f168201915b505050918352505060068201546001600160a01b0381166020830152604090910190600160a01b900460ff166005811115610b6857610b68611961565b6005811115610b7957610b79611961565b815260200160078201548152602001600882018054610b9790611c80565b80601f0160208091040260200160405190810160405280929190818152602001828054610bc390611c80565b8015610c0e5780601f10610be557610100808354040283529160200191610c0e565b820191905f5260205f20905b815481529060010190602001808311610bf157829003601f168201915b5050505050815260200160098201548152602001600a82015481525050868480610c3790611e15565b955081518110610c4957610c49611e2d565b60200260200101819052505b80610c5f81611e15565b9150506108c2565b508185525050509250929050565b5f345f03610c965760405163162908e360e11b815260040160405180910390fd5b610e10821080610ca8575062278d0082115b15610cc657604051631da7447960e21b815260040160405180910390fd5b5f80549080610cd483611e15565b919050559050604051806101800160405280828152602001336001600160a01b0316815260200134815260200189898080601f0160208091040260200160405190810160405280939291908181526020018383808284375f92019190915250505090825250604080516020601f8a01819004810282018101909252888152918101919089908990819084018382808284375f92019190915250505090825250604080516020601f8801819004810282018101909252868152918101919087908790819084018382808284375f920182905250938552505050602082018190526040820152606001610dc58442611e41565b815260408051602080820183525f8083528185019290925242838501526060938401829052858252600180825291839020855181559085015191810180546001600160a01b0319166001600160a01b0390931692909217909155908301516002820155908201516003820190610e3b9082611e5a565b5060808201516004820190610e509082611e5a565b5060a08201516005820190610e659082611e5a565b5060c08201516006820180546001600160a01b039092166001600160a01b031983168117825560e0850151926001600160a81b03191617600160a01b836005811115610eb357610eb3611961565b021790555061010082015160078201556101208201516008820190610ed89082611e5a565b50610140820151600982015561016090910151600a90910155335f81815260026020908152604082208054600181018255908352912001829055817f4c1c5373cec7b282a90ab873a9f1399df52e7c1634bf4f72806dba4c145a6076348b8b610f418842611e41565b604051610f519493929190611f1a565b60405180910390a3979650505050505050565b6003602052815f5260405f208181548110610f7d575f80fd5b905f5260205f20015f91509150505481565b5f81815260016020526040902060026006820154600160a01b900460ff166005811115610fbe57610fbe611961565b14610fdc57604051630cd20a5160e41b815260040160405180910390fd5b60018101546001600160a01b0316331461100957604051630edd024760e11b815260040160405180910390fd5b60068101805460ff60a01b1916600560a01b179055604051339083907f034b0cb2bd714ae7a64eaa3a8860c50d0f7638e6e5ac23f586bcfe3bbd30038e905f90a35050565b6001600160a01b0381165f908152600260209081526040918290208054835181840281018401909452808452606093928301828280156106c757602002820191905f5260205f20908154815260200190600101908083116106b35750505050509050919050565b600160208190525f918252604090912080549181015460028201546003830180546001600160a01b039093169391926110ed90611c80565b80601f016020809104026020016040519081016040528092919081815260200182805461111990611c80565b80156111645780601f1061113b57610100808354040283529160200191611164565b820191905f5260205f20905b81548152906001019060200180831161114757829003601f168201915b50505050509080600401805461117990611c80565b80601f01602080910402602001604051908101604052809291908181526020018280546111a590611c80565b80156111f05780601f106111c7576101008083540402835291602001916111f0565b820191905f5260205f20905b8154815290600101906020018083116111d357829003601f168201915b50505050509080600501805461120590611c80565b80601f016020809104026020016040519081016040528092919081815260200182805461123190611c80565b801561127c5780601f106112535761010080835404028352916020019161127c565b820191905f5260205f20905b81548152906001019060200180831161125f57829003601f168201915b505050506006830154600784015460088501805494956001600160a01b03841695600160a01b90940460ff16945091926112b590611c80565b80601f01602080910402602001604051908101604052809291908181526020018280546112e190611c80565b801561132c5780601f106113035761010080835404028352916020019161132c565b820191905f5260205f20905b81548152906001019060200180831161130f57829003601f168201915b50505050509080600901549080600a015490508c565b5f818152600160205260408120906006820154600160a01b900460ff16600581111561137057611370611961565b1461138e57604051631213349960e21b815260040160405180910390fd5b60018101546001600160a01b031633146113bb57604051630edd024760e11b815260040160405180910390fd5b60068101805460ff60a01b1916600160a21b1790556002810180545f91829055600183015460405191926001600160a01b039091169183156108fc0291849190818181858888f19350505050158015611416573d5f803e3d5ffd5b50604051818152339084907fb9670bf4f2273686f771c9ab65309436df5ed75afa63eefec8b67640d8bcf72c90602001610468565b611453611760565b5f8281526001602081815260409283902083516101808101855281548152928101546001600160a01b0316918301919091526002810154928201929092526003820180549192916060840191906114a990611c80565b80601f01602080910402602001604051908101604052809291908181526020018280546114d590611c80565b80156115205780601f106114f757610100808354040283529160200191611520565b820191905f5260205f20905b81548152906001019060200180831161150357829003601f168201915b5050505050815260200160048201805461153990611c80565b80601f016020809104026020016040519081016040528092919081815260200182805461156590611c80565b80156115b05780601f10611587576101008083540402835291602001916115b0565b820191905f5260205f20905b81548152906001019060200180831161159357829003601f168201915b505050505081526020016005820180546115c990611c80565b80601f01602080910402602001604051908101604052809291908181526020018280546115f590611c80565b80156116405780601f1061161757610100808354040283529160200191611640565b820191905f5260205f20905b81548152906001019060200180831161162357829003601f168201915b505050918352505060068201546001600160a01b0381166020830152604090910190600160a01b900460ff16600581111561167d5761167d611961565b600581111561168e5761168e611961565b8152602001600782015481526020016008820180546116ac90611c80565b80601f01602080910402602001604051908101604052809291908181526020018280546116d890611c80565b80156117235780601f106116fa57610100808354040283529160200191611723565b820191905f5260205f20905b81548152906001019060200180831161170657829003601f168201915b5050505050815260200160098201548152602001600a820154815250509050919050565b6002602052815f5260405f208181548110610f7d575f80fd5b6040518061018001604052805f81526020015f6001600160a01b031681526020015f81526020016060815260200160608152602001606081526020015f6001600160a01b031681526020015f60058111156117bd576117bd611961565b81526020015f8152602001606081526020015f81526020015f81525090565b5f602082840312156117ec575f80fd5b5035919050565b5f8083601f840112611803575f80fd5b50813567ffffffffffffffff81111561181a575f80fd5b602083019150836020828501011115611831575f80fd5b9250929050565b5f805f6040848603121561184a575f80fd5b83359250602084013567ffffffffffffffff811115611867575f80fd5b611873868287016117f3565b9497909650939450505050565b80356001600160a01b0381168114611896575f80fd5b919050565b5f602082840312156118ab575f80fd5b6118b482611880565b9392505050565b602080825282518282018190525f9190848201906040850190845b818110156118f2578351835292840192918401916001016118d6565b50909695505050505050565b5f806040838503121561190f575f80fd5b50508035926020909101359150565b5f81518084525f5b8181101561194257602081850181015186830182015201611926565b505f602082860101526020601f19601f83011685010191505092915050565b634e487b7160e01b5f52602160045260245ffd5b6006811061199157634e487b7160e01b5f52602160045260245ffd5b9052565b5f6101808251845260208301516119b760208601826001600160a01b03169052565b506040830151604085015260608301518160608601526119d98286018261191e565b915050608083015184820360808601526119f3828261191e565b91505060a083015184820360a0860152611a0d828261191e565b91505060c0830151611a2a60c08601826001600160a01b03169052565b5060e0830151611a3d60e0860182611975565b5061010083810151908501526101208084015185830382870152611a61838261191e565b610140868101519088015261016095860151959096019490945250929392505050565b5f604082016040835280855180835260608501915060608160051b860101925060208088015f5b83811015611ad957605f19888703018552611ac7868351611995565b95509382019390820190600101611aab565b50505050506020929092019290925292915050565b5f805f805f805f6080888a031215611b04575f80fd5b873567ffffffffffffffff80821115611b1b575f80fd5b611b278b838c016117f3565b909950975060208a0135915080821115611b3f575f80fd5b611b4b8b838c016117f3565b909750955060408a0135915080821115611b63575f80fd5b50611b708a828b016117f3565b989b979a50959894979596606090950135949350505050565b5f8060408385031215611b9a575f80fd5b611ba383611880565b946020939093013593505050565b8c81526001600160a01b038c81166020830152604082018c9052610180606083018190525f91611be38483018e61191e565b91508382036080850152611bf7828d61191e565b915083820360a0850152611c0b828c61191e565b908a1660c08501529050611c2260e0840189611975565b86610100840152828103610120840152611c3c818761191e565b610140840195909552505061016001529a9950505050505050505050565b602081525f6118b46020830184611995565b634e487b7160e01b5f52604160045260245ffd5b600181811c90821680611c9457607f821691505b602082108103611cb257634e487b7160e01b5f52602260045260245ffd5b50919050565b601f821115611cff57805f5260205f20601f840160051c81016020851015611cdd5750805b601f840160051c820191505b81811015611cfc575f8155600101611ce9565b50505b505050565b67ffffffffffffffff831115611d1c57611d1c611c6c565b611d3083611d2a8354611c80565b83611cb8565b5f601f841160018114611d61575f8515611d4a5750838201355b5f19600387901b1c1916600186901b178355611cfc565b5f83815260208120601f198716915b82811015611d905786850135825560209485019460019092019101611d70565b5086821015611dac575f1960f88860031b161c19848701351681555b505060018560011b0183555050505050565b81835281816020850137505f828201602090810191909152601f909101601f19169091010190565b602081525f611df9602083018486611dbe565b949350505050565b634e487b7160e01b5f52601160045260245ffd5b5f60018201611e2657611e26611e01565b5060010190565b634e487b7160e01b5f52603260045260245ffd5b80820180821115611e5457611e54611e01565b92915050565b815167ffffffffffffffff811115611e7457611e74611c6c565b611e8881611e828454611c80565b84611cb8565b602080601f831160018114611ebb575f8415611ea45750858301515b5f19600386901b1c1916600185901b178555611f12565b5f85815260208120601f198616915b82811015611ee957888601518255948401946001909101908401611eca565b5085821015611f0657878501515f19600388901b60f8161c191681555b505060018460011b0185555b505050505050565b848152606060208201525f611f33606083018587611dbe565b90508260408301529594505050505056fea2646970667358221220665fe142873f06e2d9cdb52aeabd43af5ae1e29fe06f42ee2bb446460f96b1ce64736f6c63430008180033","linkReferences":{}},"methodIdentifiers":{"DISPUTE_WINDOW()":"f585dc57","MAX_DEADLINE()":"6f0e530f","MIN_DEADLINE()":"85ae341d","approveBounty(uint256)":"81b2948f","bounties(uint256)":"dc2f8744","bountyCount()":"3e362c96","cancelBounty(uint256)":"e5e5dff1","claimBounty(uint256)":"44021ad7","claimerBounties(address,uint256)":"8802ca20","disputeBounty(uint256)":"a153e86b","getBounty(uint256)":"ee8c4bbf","getClaimerBounties(address)":"5fe3e25e","getOpenBounties(uint256,uint256)":"848c32a0","getPosterBounties(address)":"a1e16234","postBounty(string,string,string,uint256)":"84b448f6","posterBounties(address,uint256)":"f23371af","refundExpiredBounty(uint256)":"0f2aff03","submitProof(uint256,string)":"2af00510"},"id":22}